{
  "contractName": "ParKing",
  "abi": [
    {
      "constant": true,
      "inputs": [
        {
          "name": "",
          "type": "uint256"
        }
      ],
      "name": "userAddresses",
      "outputs": [
        {
          "name": "",
          "type": "bytes32"
        }
      ],
      "payable": false,
      "stateMutability": "view",
      "type": "function"
    },
    {
      "constant": true,
      "inputs": [
        {
          "name": "",
          "type": "bytes32"
        }
      ],
      "name": "parkinglots",
      "outputs": [
        {
          "name": "car",
          "type": "address"
        },
        {
          "name": "lot_owner",
          "type": "address"
        },
        {
          "name": "arrivaltime",
          "type": "uint256"
        },
        {
          "name": "inUse",
          "type": "bool"
        },
        {
          "name": "pricepersec",
          "type": "uint256"
        }
      ],
      "payable": false,
      "stateMutability": "view",
      "type": "function"
    },
    {
      "constant": false,
      "inputs": [
        {
          "name": "_lot",
          "type": "bytes32"
        },
        {
          "name": "_owner",
          "type": "address"
        }
      ],
      "name": "setOwnership",
      "outputs": [],
      "payable": false,
      "stateMutability": "nonpayable",
      "type": "function"
    },
    {
      "constant": false,
      "inputs": [
        {
          "name": "_lot",
          "type": "bytes32"
        },
        {
          "name": "_pps",
          "type": "uint256"
        }
      ],
      "name": "setPricepersec",
      "outputs": [],
      "payable": false,
      "stateMutability": "nonpayable",
      "type": "function"
    },
    {
      "constant": false,
      "inputs": [
        {
          "name": "_lot",
          "type": "bytes32"
        },
        {
          "name": "_car",
          "type": "address"
        }
      ],
      "name": "setArrival",
      "outputs": [],
      "payable": false,
      "stateMutability": "nonpayable",
      "type": "function"
    },
    {
      "constant": false,
      "inputs": [
        {
          "name": "_lot",
          "type": "bytes32"
        }
      ],
      "name": "setDeparture",
      "outputs": [],
      "payable": true,
      "stateMutability": "payable",
      "type": "function"
    }
  ],
  "bytecode": "0x608060405234801561001057600080fd5b50610982806100206000396000f3fe608060405260043610610078576000357c0100000000000000000000000000000000000000000000000000000000900463ffffffff1680631bbf9dab1461007d5780631e71ad74146100c25780631e7a1960146100f0578063502c9bd51461014b57806392e561651461019a5780639da7e2f9146101f5575b600080fd5b34801561008957600080fd5b506100c0600480360360408110156100a057600080fd5b8101908080359060200190929190803590602001909291905050506102bc565b005b6100ee600480360360208110156100d857600080fd5b8101908080359060200190929190505050610450565b005b3480156100fc57600080fd5b506101496004803603604081101561011357600080fd5b8101908080359060200190929190803573ffffffffffffffffffffffffffffffffffffffff169060200190929190505050610612565b005b34801561015757600080fd5b506101846004803603602081101561016e57600080fd5b8101908080359060200190929190505050610714565b6040518082815260200191505060405180910390f35b3480156101a657600080fd5b506101f3600480360360408110156101bd57600080fd5b8101908080359060200190929190803573ffffffffffffffffffffffffffffffffffffffff169060200190929190505050610737565b005b34801561020157600080fd5b5061022e6004803603602081101561021857600080fd5b81019080803590602001909291905050506108d3565b604051808673ffffffffffffffffffffffffffffffffffffffff1673ffffffffffffffffffffffffffffffffffffffff1681526020018573ffffffffffffffffffffffffffffffffffffffff1673ffffffffffffffffffffffffffffffffffffffff168152602001848152602001831515151581526020018281526020019550505050505060405180910390f35b6000151560008084815260200190815260200160002060030160009054906101000a900460ff16151514151561035a576040517f08c379a000000000000000000000000000000000000000000000000000000000815260040180806020018281038252601d8152602001807f5061726b696e67206c6f742063757272656e746c7920696e207573652100000081525060200191505060405180910390fd5b3373ffffffffffffffffffffffffffffffffffffffff1660008084815260200190815260200160002060010160009054906101000a900473ffffffffffffffffffffffffffffffffffffffff1673ffffffffffffffffffffffffffffffffffffffff16141515610432576040517f08c379a00000000000000000000000000000000000000000000000000000000081526004018080602001828103825260128152602001807f4f776e65727368697020696e76616c696421000000000000000000000000000081525060200191505060405180910390fd5b80600080848152602001908152602001600020600401819055505050565b60008082815260200190815260200160002060000160009054906101000a900473ffffffffffffffffffffffffffffffffffffffff1673ffffffffffffffffffffffffffffffffffffffff163373ffffffffffffffffffffffffffffffffffffffff16141515610528576040517f08c379a00000000000000000000000000000000000000000000000000000000081526004018080602001828103825260108152602001807f57726f6e67206f776e657273686970210000000000000000000000000000000081525060200191505060405180910390fd5b6000808281526020019081526020016000206004015460008083815260200190815260200160002060020154420302341015151561056557600080fd5b60008082815260200190815260200160002060010160009054906101000a900473ffffffffffffffffffffffffffffffffffffffff1673ffffffffffffffffffffffffffffffffffffffff166108fc60008084815260200190815260200160002060040154600080858152602001908152602001600020600201540242039081150290604051600060405180830381858888f1935050505015801561060e573d6000803e3d6000fd5b5050565b6102588173ffffffffffffffffffffffffffffffffffffffff16311115156106a2576040517f08c379a00000000000000000000000000000000000000000000000000000000081526004018080602001828103825260148152602001807f496e73756666696369656e742066756e64696e6700000000000000000000000081525060200191505060405180910390fd5b8060008084815260200190815260200160002060000160006101000a81548173ffffffffffffffffffffffffffffffffffffffff021916908373ffffffffffffffffffffffffffffffffffffffff16021790555042600080848152602001908152602001600020600201819055505050565b60018181548110151561072357fe5b906000526020600020016000915090505481565b600073ffffffffffffffffffffffffffffffffffffffff1660008084815260200190815260200160002060010160009054906101000a900473ffffffffffffffffffffffffffffffffffffffff1673ffffffffffffffffffffffffffffffffffffffff16148061080757503373ffffffffffffffffffffffffffffffffffffffff1660008084815260200190815260200160002060010160009054906101000a900473ffffffffffffffffffffffffffffffffffffffff1673ffffffffffffffffffffffffffffffffffffffff16145b151561087b576040517f08c379a00000000000000000000000000000000000000000000000000000000081526004018080602001828103825260128152602001807f4f776e65727368697020696e76616c696421000000000000000000000000000081525060200191505060405180910390fd5b8060008084815260200190815260200160002060010160006101000a81548173ffffffffffffffffffffffffffffffffffffffff021916908373ffffffffffffffffffffffffffffffffffffffff1602179055505050565b60006020528060005260406000206000915090508060000160009054906101000a900473ffffffffffffffffffffffffffffffffffffffff16908060010160009054906101000a900473ffffffffffffffffffffffffffffffffffffffff16908060020154908060030160009054906101000a900460ff1690806004015490508556fea165627a7a72305820864509e2f1854f5692e65ecb92a7e486d8a2c702dabc2c17ccf5a984b1dd6ba60029",
  "source": "pragma solidity >=0.4.22 <0.6.0;\r\n\r\ncontract ParKing {\r\n\r\n    struct Parkinglot {\r\n        address car; //vom parkenden Auto\r\n        address payable lot_owner;\r\n        uint256 arrivaltime;\r\n        bool inUse;\r\n        uint256 pricepersec;\r\n    }\r\n\r\n    mapping(bytes32 => Parkinglot) public parkinglots;\r\n    bytes32[] public userAddresses;\r\n\r\n    function setOwnership(bytes32 _lot, address payable _owner) public {\r\n        require(parkinglots[_lot].lot_owner == address(0) || parkinglots[_lot].lot_owner == msg.sender, \"Ownership invalid!\");\r\n        parkinglots[_lot].lot_owner = _owner;\r\n    }\r\n\r\n    function setPricepersec(bytes32 _lot, uint _pps) public {\r\n        require(parkinglots[_lot].inUse == false, \"Parking lot currently in use!\");\r\n        require(parkinglots[_lot].lot_owner == msg.sender, \"Ownership invalid!\");\r\n        parkinglots[_lot].pricepersec = _pps;\r\n    }\r\n\r\n    function setArrival(bytes32 _lot, address _car) public {\r\n        require(_car.balance>600, \"Insufficient funding\");\r\n        parkinglots[_lot].car = _car;\r\n        parkinglots[_lot].arrivaltime = now;\r\n    }\r\n\r\n    function setDeparture(bytes32 _lot) public payable { //only then the poller goes down\r\n        require(msg.sender == parkinglots[_lot].car, \"Wrong ownership!\");\r\n        require(msg.value >= (block.timestamp - parkinglots[_lot].arrivaltime) * parkinglots[_lot].pricepersec);\r\n        parkinglots[_lot].lot_owner.transfer(block.timestamp - parkinglots[_lot].arrivaltime * parkinglots[_lot].pricepersec);\r\n    }\r\n    \r\n}",
  "sourcePath": "C:/Users/Benedict Wolff/Desktop/ParKing/contracts/ParKing.sol",
  "compiler": {
    "name": "solc",
    "version": "0.5.0+commit.1d4f565a.Emscripten.clang"
  },
  "schemaVersion": "3.0.2",
  "updatedAt": "2019-02-15T21:29:13.712Z",
  "devdoc": {
    "methods": {}
  },
  "userdoc": {
    "methods": {}
  }
}